{
  "contractName": "PriviNFTBuying",
  "abi": [
    {
      "inputs": [
        {
          "internalType": "address[]",
          "name": "_tokens",
          "type": "address[]"
        },
        {
          "internalType": "address",
          "name": "_nftPool",
          "type": "address"
        },
        {
          "internalType": "address",
          "name": "_priceOracle",
          "type": "address"
        }
      ],
      "stateMutability": "nonpayable",
      "type": "constructor"
    },
    {
      "anonymous": false,
      "inputs": [
        {
          "indexed": false,
          "internalType": "bool",
          "name": "assigned",
          "type": "bool"
        },
        {
          "indexed": false,
          "internalType": "uint256",
          "name": "optionID",
          "type": "uint256"
        },
        {
          "indexed": false,
          "internalType": "uint256",
          "name": "offerID",
          "type": "uint256"
        }
      ],
      "name": "Assigned",
      "type": "event"
    },
    {
      "anonymous": false,
      "inputs": [
        {
          "indexed": false,
          "internalType": "address",
          "name": "buyer",
          "type": "address"
        },
        {
          "indexed": false,
          "internalType": "address",
          "name": "token",
          "type": "address"
        },
        {
          "indexed": false,
          "internalType": "address",
          "name": "price",
          "type": "address"
        },
        {
          "indexed": false,
          "internalType": "uint256",
          "name": "optionID",
          "type": "uint256"
        },
        {
          "indexed": false,
          "internalType": "uint256",
          "name": "offerID",
          "type": "uint256"
        }
      ],
      "name": "BOfferCreated",
      "type": "event"
    },
    {
      "anonymous": false,
      "inputs": [
        {
          "indexed": false,
          "internalType": "address",
          "name": "account",
          "type": "address"
        },
        {
          "indexed": false,
          "internalType": "address",
          "name": "token",
          "type": "address"
        },
        {
          "indexed": false,
          "internalType": "uint256",
          "name": "amount",
          "type": "uint256"
        }
      ],
      "name": "Deposit",
      "type": "event"
    },
    {
      "anonymous": false,
      "inputs": [
        {
          "indexed": false,
          "internalType": "address",
          "name": "owner",
          "type": "address"
        },
        {
          "indexed": false,
          "internalType": "address",
          "name": "buyer",
          "type": "address"
        },
        {
          "indexed": false,
          "internalType": "uint256",
          "name": "optionID",
          "type": "uint256"
        },
        {
          "indexed": false,
          "internalType": "uint256",
          "name": "offerID",
          "type": "uint256"
        }
      ],
      "name": "OOfferAccepted",
      "type": "event"
    },
    {
      "anonymous": false,
      "inputs": [
        {
          "indexed": false,
          "internalType": "address",
          "name": "owner",
          "type": "address"
        },
        {
          "indexed": false,
          "internalType": "uint256",
          "name": "optionID",
          "type": "uint256"
        }
      ],
      "name": "OOptionCanceled",
      "type": "event"
    },
    {
      "anonymous": false,
      "inputs": [
        {
          "indexed": false,
          "internalType": "address",
          "name": "owner",
          "type": "address"
        },
        {
          "indexed": false,
          "internalType": "address",
          "name": "nft",
          "type": "address"
        },
        {
          "indexed": false,
          "internalType": "uint256",
          "name": "expiry",
          "type": "uint256"
        },
        {
          "indexed": false,
          "internalType": "uint256",
          "name": "price",
          "type": "uint256"
        },
        {
          "indexed": false,
          "internalType": "uint256",
          "name": "pct",
          "type": "uint256"
        },
        {
          "indexed": false,
          "internalType": "uint256",
          "name": "optionID",
          "type": "uint256"
        }
      ],
      "name": "OOptionCreated",
      "type": "event"
    },
    {
      "anonymous": false,
      "inputs": [
        {
          "indexed": false,
          "internalType": "address",
          "name": "account",
          "type": "address"
        },
        {
          "indexed": false,
          "internalType": "address",
          "name": "token",
          "type": "address"
        },
        {
          "indexed": false,
          "internalType": "uint256",
          "name": "amount",
          "type": "uint256"
        }
      ],
      "name": "Withdraw",
      "type": "event"
    },
    {
      "inputs": [
        {
          "internalType": "address",
          "name": "nft",
          "type": "address"
        },
        {
          "internalType": "uint256",
          "name": "expiry",
          "type": "uint256"
        },
        {
          "internalType": "address",
          "name": "token",
          "type": "address"
        },
        {
          "internalType": "uint256",
          "name": "price",
          "type": "uint256"
        },
        {
          "internalType": "uint256",
          "name": "pct",
          "type": "uint256"
        }
      ],
      "name": "createOption",
      "outputs": [
        {
          "internalType": "uint256",
          "name": "optionID",
          "type": "uint256"
        }
      ],
      "stateMutability": "nonpayable",
      "type": "function"
    },
    {
      "inputs": [
        {
          "internalType": "uint256",
          "name": "optionID",
          "type": "uint256"
        },
        {
          "internalType": "address",
          "name": "nft",
          "type": "address"
        },
        {
          "internalType": "uint256",
          "name": "expiry",
          "type": "uint256"
        },
        {
          "internalType": "uint256",
          "name": "price",
          "type": "uint256"
        },
        {
          "internalType": "uint256",
          "name": "pct",
          "type": "uint256"
        }
      ],
      "name": "moidfyOption",
      "outputs": [],
      "stateMutability": "nonpayable",
      "type": "function"
    },
    {
      "inputs": [
        {
          "internalType": "uint256",
          "name": "optionID",
          "type": "uint256"
        }
      ],
      "name": "cancelOption",
      "outputs": [],
      "stateMutability": "nonpayable",
      "type": "function"
    },
    {
      "inputs": [
        {
          "internalType": "uint256",
          "name": "optionID",
          "type": "uint256"
        }
      ],
      "name": "createOffer",
      "outputs": [],
      "stateMutability": "nonpayable",
      "type": "function"
    },
    {
      "inputs": [
        {
          "internalType": "uint256",
          "name": "offerID",
          "type": "uint256"
        }
      ],
      "name": "acceptOffer",
      "outputs": [],
      "stateMutability": "nonpayable",
      "type": "function"
    },
    {
      "inputs": [
        {
          "internalType": "uint256",
          "name": "offerID",
          "type": "uint256"
        }
      ],
      "name": "assignOffer",
      "outputs": [],
      "stateMutability": "nonpayable",
      "type": "function"
    },
    {
      "inputs": [
        {
          "internalType": "address",
          "name": "token",
          "type": "address"
        },
        {
          "internalType": "uint256",
          "name": "amount",
          "type": "uint256"
        }
      ],
      "name": "deposit",
      "outputs": [],
      "stateMutability": "nonpayable",
      "type": "function"
    },
    {
      "inputs": [
        {
          "internalType": "address",
          "name": "token",
          "type": "address"
        },
        {
          "internalType": "uint256",
          "name": "amount",
          "type": "uint256"
        }
      ],
      "name": "withdraw",
      "outputs": [],
      "stateMutability": "nonpayable",
      "type": "function"
    },
    {
      "inputs": [],
      "name": "recover",
      "outputs": [],
      "stateMutability": "nonpayable",
      "type": "function"
    },
    {
      "inputs": [
        {
          "internalType": "address",
          "name": "user",
          "type": "address"
        }
      ],
      "name": "totalAssetUSD",
      "outputs": [
        {
          "internalType": "uint256",
          "name": "",
          "type": "uint256"
        }
      ],
      "stateMutability": "nonpayable",
      "type": "function"
    }
  ],
  "bytecode": "0x60806040523480156200001157600080fd5b5060405162000c5038038062000c508339810160408190526200003491620001b2565b825162000049906001906020860190620000fe565b50600280546001600160a01b038085166001600160a01b0319928316179092556003805492841692821692909217909155600480549091163017905560005b8351811015620000f457600160076000868481518110620000ad57620000ad620002aa565b6020908102919091018101516001600160a01b03168252810191909152604001600020805460ff191691151591909117905580620000eb81620002c0565b91505062000088565b50505050620002ea565b82805482825590600052602060002090810192821562000156579160200282015b828111156200015657825182546001600160a01b0319166001600160a01b039091161782556020909201916001909101906200011f565b506200016492915062000168565b5090565b5b8082111562000164576000815560010162000169565b634e487b7160e01b600052604160045260246000fd5b80516001600160a01b0381168114620001ad57600080fd5b919050565b600080600060608486031215620001c857600080fd5b83516001600160401b0380821115620001e057600080fd5b818601915086601f830112620001f557600080fd5b81516020828211156200020c576200020c6200017f565b8160051b604051601f19603f830116810181811086821117156200023457620002346200017f565b60405292835281830193508481018201928a8411156200025357600080fd5b948201945b838610156200027c576200026c8662000195565b8552948201949382019362000258565b97506200028d905088820162000195565b955050505050620002a16040850162000195565b90509250925092565b634e487b7160e01b600052603260045260246000fd5b6000600019821415620002e357634e487b7160e01b600052601160045260246000fd5b5060010190565b61095680620002fa6000396000f3fe608060405234801561001057600080fd5b506004361061009e5760003560e01c8063a269993d11610066578063a269993d146100a3578063c815729d146100a3578063ce746024146100b4578063de6bf63514610116578063f3fef3a31461012957600080fd5b806324af54b6146100a357806328ec102c146100b657806347e7ef24146100db5780636f1e4921146100ee57806384a64bf714610101575b600080fd5b6100b46100b136600461074f565b50565b005b6100c96100c4366004610784565b61013c565b60405190815260200160405180910390f35b6100b46100e93660046107a6565b6101c4565b6100c96100fc3660046107d0565b610332565b6100b461010f36600461081e565b5050505050565b6100b461012436600461074f565b61046d565b6100b46101373660046107a6565b61058d565b600080805b6001548110156101bd576001600160a01b0384166000908152600660205260408120600180549192918490811061017a5761017a610864565b60009182526020808320909101546001600160a01b031683528201929092526040019020546101a99083610890565b9150806101b5816108a8565b915050610141565b5092915050565b600081116102155760405162461bcd60e51b8152602060048201526019602482015278125394d551919250d251539517d25394155517d05353d55395603a1b60448201526064015b60405180910390fd5b600480546040516323b872dd60e01b81526001600160a01b03858116936323b872dd9361024a933393909116918791016108c3565b602060405180830381600087803b15801561026457600080fd5b505af1158015610278573d6000803e3d6000fd5b505050506040513d601f19601f8201168201806040525081019061029c91906108e7565b503360009081526006602090815260408083206001600160a01b03861684529091529020546102cc908290610890565b3360008181526006602090815260408083206001600160a01b0388168452909152908190209290925590517f5548c837ab068cf56a2c2479df0882a4922fd203edb7517321831d95078c5f629161032691859085906108c3565b60405180910390a15050565b600033156103755760405162461bcd60e51b815260206004820152601060248201526f139bdd0813dddb995c881bd98813919560821b604482015260640161020c565b506000805490819080610387836108a8565b90915550506040805160a08082018352338083526001600160a01b038a811660208086018281528688018d815260608089018c81526080808b018d815260008e8152600588528d90208c518154908b166001600160a01b0319918216178255965160018201805491909b169716969096179098559251600285015551600384015594516004909201919091558751948552908401919091529482018a905281018790529283018590528201839052907fc9c149f93ce071d57581b7c3a1e5b928f012075448052a6e755021bf0a010f0e9060c00160405180910390a15095945050505050565b600081815260056020526040902080546001600160a01b03166104ca5760405162461bcd60e51b81526020600482015260156024820152744e6f2073756368206f7074696f6e2065786973747360581b604482015260640161020c565b80546001600160a01b031633146105195760405162461bcd60e51b81526020600482015260136024820152722737ba1037bbb732b91037b31037b83a34b7b760691b604482015260640161020c565b600082815260056020908152604080832080546001600160a01b03199081168255600182018054909116905560028101849055600381018490556004019290925581513381529081018490527f7a5ff4671cc2ada3846d335ccbc4353879c080a9a8231572e41af5df1ca4188a9101610326565b600081116105d95760405162461bcd60e51b8152602060048201526019602482015278125394d551919250d251539517d25394155517d05353d55395603a1b604482015260640161020c565b3360009081526006602090815260408083206001600160a01b038616845290915290205481111561063f5760405162461bcd60e51b815260206004820152601060248201526f139bdd08195b9bdd59da08185cdcd95d60821b604482015260640161020c565b600480546040516323b872dd60e01b81526001600160a01b03808616936323b872dd936106739392169133918791016108c3565b602060405180830381600087803b15801561068d57600080fd5b505af11580156106a1573d6000803e3d6000fd5b505050506040513d601f19601f820116820180604052508101906106c591906108e7565b503360009081526006602090815260408083206001600160a01b03861684529091529020546106f5908290610909565b3360008181526006602090815260408083206001600160a01b0388168452909152908190209290925590517f9b1bfa7fa9ee420a16e124f794c35ac9f90472acc99140eb2f6447c714cad8eb9161032691859085906108c3565b60006020828403121561076157600080fd5b5035919050565b80356001600160a01b038116811461077f57600080fd5b919050565b60006020828403121561079657600080fd5b61079f82610768565b9392505050565b600080604083850312156107b957600080fd5b6107c283610768565b946020939093013593505050565b600080600080600060a086880312156107e857600080fd5b6107f186610768565b94506020860135935061080660408701610768565b94979396509394606081013594506080013592915050565b600080600080600060a0868803121561083657600080fd5b8535945061084660208701610768565b94979496505050506040830135926060810135926080909101359150565b634e487b7160e01b600052603260045260246000fd5b634e487b7160e01b600052601160045260246000fd5b600082198211156108a3576108a361087a565b500190565b60006000198214156108bc576108bc61087a565b5060010190565b6001600160a01b039384168152919092166020820152604081019190915260600190565b6000602082840312156108f957600080fd5b8151801515811461079f57600080fd5b60008282101561091b5761091b61087a565b50039056fea264697066735822122006233efa81c2228dc84f4a447ac5c2ac3602689eb67459ad7d6b3eab2852599f64736f6c63430008090033",
  "immutableReferences": {},
  "source": "// SPDX-License-Identifier: MIT\npragma solidity >=0.8.0 <0.9.0;\n\nimport {IERC721} from \"@openzeppelin/contracts/token/ERC721/IERC721.sol\";\nimport {IERC20} from \"@openzeppelin/contracts/token/ERC20/IERC20.sol\";\nimport {IERC721Metadata} from \"@openzeppelin/contracts/token/ERC721/extensions/IERC721Metadata.sol\";\nimport {IERC20Metadata} from \"@openzeppelin/contracts/token/ERC20/extensions/IERC20Metadata.sol\";\nimport \"@openzeppelin/contracts/token/ERC20/ERC20.sol\";\nimport {IPriceOracle} from \"./interface/IPriceOracle.sol\";\n\n/*\nOWNER:\n-  Whitelist asset to be open to receive Reserval Offers. He may (start with his own initial offer). IMPORTANT: if the owner sets an offer you get only the approval of the Owner ffor the NFT to the contract but the NFT is NOT LOCKED at this stage\n-  Owner can remove from whitelist without any cost as long as no offer has been accepted first.\n-  Owner can accept an offer. At this stage NFT is locked on the contract\n-  Owner can withdraw collateral deposited by the buyer at any moment\n-  If owner wants to cancel the Reserval (Option), he needs to payback what he withdrawn +a fee\nBUYER:\n-  Buyer can set offers for whitelisted NFTs. IMPORTANT: the offer does not lock the collateraal of the buyer. It only gets the proposal for that toekns aand amoiunt to the contrract. For example if i propose 10K SHIB, I approve the contract but i do not lock them.\n-  Buyer can reserve NFT directly if the owner has some offer\n-  Buyer needs to keep a level of collateral. Otherwise can be liquidaated and lose it.\n-  If collateral goes below the ratio, buyer needs to deposit more collateral.\n-  At future (expiration) the buyer needs to pay the Reserve Price within a period of 5 days max. If not, he loses the option of buying\n*/\n\ncontract PriviNFTBuying {\n  event OOptionCreated(\n    address owner,\n    address nft,\n    uint256 expiry,\n    uint256 price,\n    uint256 pct,\n    uint256 optionID\n  );\n\n  event OOptionCanceled(\n    address owner,\n    uint256 optionID\n  );\n\n  event BOfferCreated(\n    address buyer,\n    address token,\n    address price,\n    uint256 optionID,\n    uint256 offerID\n  );\n\n  event OOfferAccepted(\n    address owner,\n    address buyer,\n    uint256 optionID,\n    uint256 offerID\n  );\n\n  event Assigned(\n    bool assigned,\n    uint256 optionID,\n    uint256 offerID\n  );\n  \n  event Deposit(\n    address account,\n    address token,\n    uint256 amount\n  );\n\n  event Withdraw(\n    address account,\n    address token,\n    uint256 amount\n  );\n  \n  struct NFTOption {\n    address owner;\n    address nft;\n    uint256 expiry;\n    uint256 pct;\n    uint256 optionID;\n  }\n\n  struct Offer {\n    address buyer;\n    address owner;\n    uint256 optionID;\n    uint256 offerID;\n  }\n\n  uint256 counter;\n  address[] tokens;\n  address nftPool;\n  address priceOracle;\n  address admin;\n\n  mapping(uint256 => NFTOption) options;\n  mapping(address => mapping (address => uint256)) reserves;\n  mapping(address => bool) validToken;\n\n  constructor(\n    address[] memory _tokens,\n    address _nftPool,\n    address _priceOracle\n  ) public {\n    tokens = _tokens;\n    nftPool = _nftPool;\n    priceOracle = _priceOracle;\n    admin = address(this);\n    for (uint i = 0; i < _tokens.length; i++) {\n        validToken[_tokens[i]] = true;\n    }\n  }\n  \n  function createOption(\n    address nft,\n    uint256 expiry,\n    address token,\n    uint256 price,\n    uint256 pct\n  ) external returns (uint256 optionID) {\n    require(msg.sender == _nftOwner(nft), \"Not Owner of NFT\");\n    optionID = counter;\n    counter++;\n    NFTOption memory option = NFTOption(msg.sender, nft, expiry, pct, optionID);\n    options[optionID] = option;\n    emit OOptionCreated(msg.sender, nft, expiry, price, pct, optionID);\n  }\n\n  function moidfyOption(\n    uint256 optionID,\n    address nft,\n    uint256 expiry,\n    uint256 price,\n    uint256 pct\n  ) external {\n  }\n  \n  function cancelOption(\n    uint256 optionID\n  ) external {\n    NFTOption storage option = _getOption(optionID);\n    require(option.owner != address(0), \"No such option exists\");\n    require(option.owner == msg.sender, \"Not owner of option\");\n\n    delete options[optionID];\n    emit OOptionCanceled(msg.sender, optionID);\n  }\n  \n  function createOffer(\n    uint256 optionID\n  ) external {\n  }\n\n  function acceptOffer(\n    uint256 offerID\n  ) external {\n  }\n\n  function assignOffer(\n    uint256 offerID\n  ) external {\n  }\n\n  function deposit(\n    address token,\n    uint256 amount\n  ) external {\n    require(amount > 0, \"INSUFFICIENT_INPUT_AMOUNT\");\n    IERC20(token).transferFrom(msg.sender, admin, amount);\n    reserves[msg.sender][token] = reserves[msg.sender][token] + amount;\n\n    emit Deposit(msg.sender, token, amount);\n  }\n\n  function withdraw(\n    address token,\n    uint256 amount\n  ) external {\n    require(amount > 0, \"INSUFFICIENT_INPUT_AMOUNT\");\n\n    require(reserves[msg.sender][token] >= amount, \"Not enough asset\");\n    IERC20(token).transferFrom(admin, msg.sender, amount);\n    reserves[msg.sender][token] = reserves[msg.sender][token] - amount;\n\n    emit Withdraw(msg.sender, token, amount);\n  }\n\n  function recover(\n  ) external {\n  }\n\n  function totalAssetUSD(\n    address user\n  ) external returns (uint256) {\n    uint256 total = 0;\n    for (uint i = 0; i < tokens.length; i++) {\n      total += reserves[user][tokens[i]];\n    }\n    return total;\n  }\n\n  function _getOption(uint256 optionID) private returns (NFTOption storage) {\n    return options[optionID];\n  }\n\n  function _nftOwner(address nft) private returns (address) {\n    // not completed yet\n\n    return address(0);\n  }\n\n  function _tokenToUSD(address token) private returns (uint256) {\n    // not completed yet\n    return IPriceOracle(priceOracle).price(token);\n  }\n}\n",
  "sourcePath": "E:\\Projects\\Privi2\\PriviNFTOptions\\privi-NFT-buying\\contracts\\_old_PriviNFTBuying.sol",
  "compiler": {
    "name": "solc",
    "version": "0.8.9+commit.e5eed63a.Emscripten.clang"
  },
  "schemaVersion": "3.4.3",
  "updatedAt": "2021-11-01T13:42:01.497Z",
  "devdoc": {
    "kind": "dev",
    "methods": {},
    "version": 1
  },
  "userdoc": {
    "kind": "user",
    "methods": {},
    "version": 1
  }
}